:020000040800F2
:1000000000800120690A0008DD090008E3090008F2
:10001000E9090008EF090008F509000800000000E0
:10002000000000000000000000000000FB090008C4
:10003000090A000800000000170A0008250A000845
:10004000B90A0008B90A0008B90A0008B90A000884
:10005000B90A0008B90A0008B90A0008B90A000874
:10006000B90A0008B90A0008B90A0008B90A000864
:10007000B90A0008B90A0008B90A0008B90A000854
:10008000B90A0008B90A0008B90A0008000000000F
:10009000000000000000000000000000B90A000895
:1000A000B90A0008B90A0008B90A0008B90A000824
:1000B000B90A0008B90A0008B90A0008B90A000814
:1000C000B90A0008B90A0008B90A0008B90A000804
:1000D000B90A0008310A0008B90A00080000000047
:1000E000B90A0008B90A0008B90A000800000000AF
:1000F000000000000000000000000000B90A000835
:1001000000000000B90A0008B90A0008B90A00088E
:1001100000000000000000000000000000000000DF
:10012000B90A0008B90A0008B90A0008B90A0008A3
:10013000B90A0008000000000000000000000000F4
:10014000000000000000000000000000B90A0008E4
:10015000B90A0008B90A0008B90A0008B90A000873
:10016000B90A0008B90A00080000000000000000F9
:10017000000000000000000000000000000000007F
:1001800000000000B90A00080000000000000000A4
:04019000B90A0008A0
:1001940010B5054C237833B9044B13B10448AFF3BD
:1001A40000800123237010BD140000200000000013
:1001B4009C2C000808B5034B1BB103490348AFF35B
:1001C400008008BD00000000180000209C2C0008DE
:1001D40010F8012B11F8013B012A28BF9A42F7D0ED
:1001E400D01A7047034613F8012B002AFBD1181AC2
:1001F4000138704753B94AB9002908BF00281CBF09
:100204004FF0FF314FF0FF3000F074B9ADF1080C3E
:100214006DE904CE00F006F8DDF804E0DDE9022320
:1002240004B070472DE9F047089D04468E46002B24
:100234004DD18A42944669D9B2FA82F252B101FA96
:1002440002F3C2F1200120FA01F10CFA02FC41EAA6
:10025400030E94404FEA1C48210CBEFBF8F61FFA2B
:100264008CF708FB16E341EA034306FB07F19942C6
:100274000AD91CEB030306F1FF3080F01F81994279
:1002840040F21C81023E63445B1AA4B2B3FBF8F053
:1002940008FB103344EA034400FB07F7A7420AD9DA
:1002A4001CEB040400F1FF3380F00A81A74240F202
:1002B40007816444023840EA0640E41B00261DB16D
:1002C400D4400023C5E900433146BDE8F0878B42A2
:1002D40009D9002D00F0EF800026C5E90001304661
:1002E4003146BDE8F087B3FA83F6002E4AD18B423B
:1002F40002D3824200F2F980841A61EB03030120E5
:100304009E46002DE0D0C5E9004EDDE702B9FFDED0
:10031400B2FA82F2002A40F09280A1EB0C014FEA7B
:100324001C471FFA8CFE0126200CB1FBF7F307FBD8
:10033400131140EA01410EFB03F0884208D91CEB7B
:10034400010103F1FF3802D2884200F2CB80434618
:10035400091AA4B2B1FBF7F007FB101144EA0144F7
:100364000EFB00FEA64508D91CEB040400F1FF3186
:1003740002D2A64500F2BB800846A4EB0E0440EA74
:1003840003409CE7C6F12007B34022FA07FC4CEA7D
:10039400030C20FA07F401FA06F31C43F9404FEA70
:1003A4001C4900FA06F3B1FBF9F8200C1FFA8CFE85
:1003B40009FB181140EA014108FB0EF0884202FAD9
:1003C40006F20BD91CEB010108F1FF3A80F088809A
:1003D400884240F28580A8F102086144091AA4B257
:1003E400B1FBF9F009FB101144EA014100FB0EFED8
:1003F4008E4508D91CEB010100F1FF346CD28E4507
:100404006AD90238614440EA0840A0FB0294A1EB97
:100414000E01A142C846A64656D353D05DB1B3EBF4
:10042400080261EB0E0101FA07F722FA06F3F14024
:100434001F43C5E9007100263146BDE8F087C2F1CB
:100444002003D8400CFA02FC21FA03F39140014343
:100454004FEA1C471FFA8CFEB3FBF7F007FB10367C
:100464000B0C43EA064300FB0EF69E4204FA02F428
:1004740008D91CEB030300F1FF382FD29E422DD97B
:10048400023863449B1B89B2B3FBF7F607FB1633B0
:1004940041EA034106FB0EF38B4208D91CEB010130
:1004A40006F1FF3816D28B4214D9023E6144C91AB0
:1004B40046EA004638E72E46284605E70646E3E6C0
:1004C4001846F8E64B45A9D2B9EB020864EB0C0ECA
:1004D4000138A3E74646EAE7204694E74046D1E7D9
:1004E400D0467BE7023B614432E7304609E7644487
:1004F400023842E7704700BF98B500AF00F0DCFA5D
:1005040000F08CF800F048F900F01CF900F0F0F865
:100514000A4B1C68094B1B681846FFF763FE034629
:100524009AB24FF0FF332146054801F05EFB0122E9
:100534000449054801F0EBFBFEE700BF0000002082
:1005440074000020B80000203000002080B582B084
:1005540000AF78607B681B68284A934249D1284BD6
:100564001B780D2B2FD1274B1B689AB24FF0FF330A
:100574002549264801F039FB254B1B6819462248BA
:10058400FFF726FE0346002B04D100224021214818
:1005940000F02CFE1E4B1B6819461B48FFF718FE83
:1005A4000346002B04D1002240211A4800F01EFE0D
:1005B400144B1B681A460021134802F065FB114BCB
:1005C40000221A6010E00E4B1B780D2B0CD00C4B44
:1005D4001B780A2B08D00B4B1B685A1C09490A606C
:1005E400074A1178084AD154012205490A4801F002
:1005F4008EFB00BF0837BD4680BD00BF0010014020
:10060400B8000020D0000020BC00002074000020AE
:1006140004000020000002403000002080B594B0A7
:1006240000AF07F1200330220021184602F02CFB12
:1006340007F10C0300221A605A609A60DA601A61AA
:100644000023BB60284B1B6C274A43F08053136480
:10065400254B1B6C03F08053BB60BB6800237B609D
:10066400224B1B6823F44043204A43F400431360A5
:100674001E4B1B6803F440437B607B6801233B6291
:100684004FF4A0237B620223BB634FF48003FB631C
:1006940004233B6454237B640223BB640723FB646D
:1006A40007F12003184600F0BBFD0346002B01D0E0
:1006B40000F0E0F80F23FB6002233B6100237B6121
:1006C4004FF48053BB610023FB6107F10C0302214B
:1006D400184601F01DF80346002B01D000F0CAF8BB
:1006E40000BF5037BD4680BD003802400070004056
:1006F40080B500AF114B124A1A60104B4FF4E1322F
:100704005A600E4B00229A600C4B0022DA600B4BAD
:1007140000221A61094B0C225A61084B00229A618B
:10072400064B0022DA61054801F012FA0346002B59
:1007340001D000F09FF800BF80BD00BF3000002052
:100744000010014080B500AF114B124A1A60104BE3
:100754004FF4E1325A600E4B00229A600C4B002297
:10076400DA600B4B00221A61094B0C225A61084BC8
:1007740000229A61064B0022DA61054801F0E8F98B
:100784000346002B01D000F075F800BF80BD00BF08
:10079400740000200044004080B58AB000AF07F127
:1007A400140300221A605A609A60DA601A61002306
:1007B4003B612D4B1B6B2C4A43F0040313632A4B00
:1007C4001B6B03F004033B613B690023FB60264B76
:1007D4001B6B254A43F080031363234B1B6B03F00D
:1007E4008003FB60FB680023BB601F4B1B6B1E4A2E
:1007F40043F0010313631C4B1B6B03F00103BB6049
:10080400BB6800237B60184B1B6B174A43F0020341
:100814001363154B1B6B03F002037B607B680022A0
:10082400E021124800F0E2FC4FF400537B614FF4E6
:100834000413BB610023FB6107F1140319460C4840
:1008440000F050FBE0237B610123BB610023FB61CB
:1008540000233B6207F114031946044800F042FBED
:1008640000BF2837BD4680BD00380240000002406A
:100874000008024080B400AF72B600BFFEE700007B
:1008840080B582B000AF00237B60104B5B6C0F4AD5
:1008940043F4804353640D4B5B6C03F480437B60EF
:1008A4007B6800233B60094B1B6C084A43F0805370
:1008B4001364064B1B6C03F080533B603B680720BA
:1008C40000F03CFA00BF0837BD4680BD0038024046
:1008D40080B58CB000AF786007F11C0300221A6069
:1008E4005A609A60DA601A617B681B68364A9342E0
:1008F40035D10023BB61354B5B6C344A43F01003A4
:100904005364324B5B6C03F01003BB61BB6900237F
:100914007B612E4B1B6B2D4A43F0010313632B4B5E
:100924001B6B03F001037B617B694FF4C063FB61C4
:1009340002233B6200237B620323BB620723FB6227
:1009440007F11C031946224800F0CCFA00220021CA
:10095400252000F0FEF9252000F017FA30E07B682E
:100964001B681C4A93422BD100233B61174B1B6C21
:10097400164A43F400331364144B1B6C03F4003322
:100984003B613B690023FB60104B1B6B0F4A43F038
:10099400010313630D4B1B6B03F00103FB60FB6846
:1009A4000C23FB6102233B6200237B620023BB62B6
:1009B4000723FB6207F11C031946054800F092FA6D
:1009C40000BF3037BD4680BD0010014000380240F2
:1009D400000002400044004080B400AFFEE780B451
:1009E40000AFFEE780B400AFFEE780B400AFFEE7DF
:1009F40080B400AFFEE780B400AF00BFBD465DF831
:100A0400047B704780B400AF00BFBD465DF8047B33
:100A1400704780B400AF00BFBD465DF8047B7047EB
:100A240080B500AF00F09AF800BF80BD80B500AF7C
:100A3400024801F09DF900BF80BD00BF30000020D6
:100A440080B400AF064BD3F88830054A43F47003F2
:100A5400C2F8883000BFBD465DF8047B704700BF14
:100A640000ED00E0DFF834D00D480E490E4A0023B3
:100A740002E0D458C4500433C4188C42F9D30B4A4E
:100A84000B4C002301E013600432A242FBD3FFF7B6
:100A9400D7FF02F0D5F8FFF72FFD70470080012043
:100AA4000000002014000020FC2C0008140000208A
:100AB400D8000020FEE7000080B500AF0E4B1B6895
:100AC4000D4A43F4007313600B4B1B680A4A43F44A
:100AD40080631360084B1B68074A43F480731360F8
:100AE400032000F02BF9002000F008F8FFF7C8FEFF
:100AF4000023184680BD00BF003C024080B582B090
:100B040000AF7860124B1A68124B1B7819464FF4E9
:100B14007A73B3FBF1F3B2FBF3F3184600F043F935
:100B24000346002B01D001230EE07B680F2B0AD86B
:100B3400002279684FF0FF3000F00BF9064A7B6819
:100B44001360002300E0012318460837BD4680BD2A
:100B540008000020100000200C00002080B400AF2A
:100B6400064B1B781A46064B1B681344044A136051
:100B740000BFBD465DF8047B704700BF1000002035
:100B8400D400002080B400AF034B1B681846BD4658
:100B94005DF8047B704700BFD400002080B485B0AA
:100BA40000AF78607B6803F00703FB600C4BDB68E5
:100BB400BB60BA684FF6FF031340BB60FB681A02C0
:100BC400BB68134343F0BF6343F40033BB60044A80
:100BD400BB68D36000BF1437BD465DF8047B704723
:100BE40000ED00E080B400AF044BDB681B0A03F0A7
:100BF40007031846BD465DF8047B704700ED00E02E
:100C040080B483B000AF0346FB7197F90730002B23
:100C14000BDBFB7903F01F02074997F907305B09E7
:100C2400012000FA02F241F8232000BF0C37BD4630
:100C34005DF8047B704700BF00E100E080B483B03E
:100C440000AF03463960FB7197F90730002B0ADBCC
:100C54003B68DAB20C4997F907301201D2B20B445F
:100C640083F800230AE03B68DAB20849FB7903F011
:100C74000F03043B1201D2B20B441A7600BF0C37A7
:100C8400BD465DF8047B704700E100E000ED00E044
:100C940080B489B000AFF860B9607A60FB6803F093
:100CA4000703FB61FB69C3F10703042B28BF04237B
:100CB400BB61FB690433062B02D9FB69033B00E0EB
:100CC40000237B614FF0FF32BB6902FA03F3DA437E
:100CD400BB681A407B699A404FF0FF317B6901FA87
:100CE40003F3D9437B680B40134318462437BD46AE
:100CF4005DF8047B7047000080B582B000AF786077
:100D04007B68013BB3F1807F01D301230FE00A4AE2
:100D14007B68013B53600F214FF0FF30FFF78EFFDC
:100D2400054B00229A60044B07221A6000231846E0
:100D34000837BD4680BD00BF10E000E080B582B03A
:100D440000AF78607868FFF729FF00BF0837BD4619
:100D540080BD80B586B000AF0346B9607A60FB738E
:100D640000237B61FFF73EFF78617A68B968786990
:100D7400FFF78EFF024697F90F3011461846FFF72A
:100D84005DFF00BF1837BD4680BD80B582B000AF9F
:100D94000346FB7197F907301846FFF731FF00BF90
:100DA4000837BD4680BD80B582B000AF78607868F2
:100DB400FFF7A2FF034618460837BD4680BD80B53D
:100DC40084B000AF78607B689B6DFB60FFF7DAFE50
:100DD400B8607B6893F83530DBB2022B08D07B68AF
:100DE40080225A657B68002283F83420012352E074
:100DF4007B681B681A687B681B6822F016021A60FD
:100E04007B681B685A697B681B6822F080025A6100
:100E14007B681B6C002B03D17B689B6C002B07D079
:100E24007B681B681A687B681B6822F008021A60DA
:100E34007B681B681A687B681B6822F001021A60D1
:100E440013E0FFF79FFE0246BB68D31A052B0CD9AB
:100E54007B6820225A657B68032283F835207B68EF
:100E6400002283F83420032315E07B681B681B6889
:100E740003F00103002BE4D17B68DB6D3F229A4031
:100E8400FB689A607B68012283F835207B68002226
:100E940083F83420002318461037BD4680BD80B443
:100EA40083B000AF78607B6893F83530DBB2022BF7
:100EB40004D07B6880225A6501230CE07B680522FC
:100EC40083F835207B681B681A687B681B6822F0EE
:100ED40001021A60002318460C37BD465DF8047BF6
:100EE4007047000080B489B000AF78603960002397
:100EF4007B6100233B610023BB610023FB6159E15B
:100F04000122FB6902FA03F37B613B681B687A697F
:100F140013403B613A697B699A4240F048813B68DF
:100F24005B6803F00303012B05D03B685B6803F0A7
:100F34000303022B30D17B689B68BB61FB695B00B8
:100F4400032202FA03F3DB43BA691340BB613B6833
:100F5400DA68FB695B0002FA03F3BA691343BB6105
:100F64007B68BA699A607B685B68BB610122FB6934
:100F740002FA03F3DB43BA691340BB613B685B6865
:100F84001B0903F00102FB6902FA03F3BA69134374
:100F9400BB617B68BA695A603B685B6803F0030312
:100FA400032B17D07B68DB68BB61FB695B00032202
:100FB40002FA03F3DB43BA691340BB613B689A68E6
:100FC400FB695B0002FA03F3BA691343BB617B68F4
:100FD400BA69DA603B685B6803F00303022B23D130
:100FE400FB69DA087B68083253F82230BB61FB697D
:100FF40003F007039B000F2202FA03F3DB43BA69F1
:101004001340BB613B681A69FB6903F007039B004B
:1010140002FA03F3BA691343BB61FB69DA087B681C
:101024000832B96943F822107B681B68BB61FB690D
:101034005B00032202FA03F3DB43BA691340BB618A
:101044003B685B6803F00302FB695B0002FA03F38D
:10105400BA691343BB617B68BA691A603B685B6811
:1010640003F44033002B00F0A2800023FB60574BB5
:101074005B6C564A43F480435364544B5B6C03F4F7
:101084008043FB60FB68524AFB699B08023352F8B9
:101094002330BB61FB6903F003039B000F2202FAB8
:1010A40003F3DB43BA691340BB617B68494A93424B
:1010B40019D07B68484A934213D07B68474A9342CD
:1010C4000DD07B68464A934207D07B68454A9342D9
:1010D40001D1042308E0072306E0032304E00223EC
:1010E40002E0012300E00023FA6902F00302920007
:1010F4009340BA691343BB613549FB699B080233CA
:10110400BA6941F82320384B9B68BB613B69DB43D8
:10111400BA691340BB613B685B6803F48013002B1E
:1011240003D0BA693B691343BB612F4ABB6993601F
:101134002D4BDB68BB613B69DB43BA691340BB6180
:101144003B685B6803F40013002B03D0BA693B6966
:101154001343BB61244ABB69D360234B5B68BB6107
:101164003B69DB43BA691340BB613B685B6803F4CA
:101174000033002B03D0BA693B691343BB611A4A9D
:10118400BB695360184B1B68BB613B69DB43BA699D
:101194001340BB613B685B6803F48033002B03D0CE
:1011A400BA693B691343BB610F4ABB691360FB69AE
:1011B4000133FB61FB690F2B7FF6A2AE00BF00BFBA
:1011C4002437BD465DF8047B704700BF00380240F9
:1011D40000380140000002400004024000080240C0
:1011E400000C024000100240003C014080B483B077
:1011F40000AF78600B467B8013467B707B78002BB6
:1012040003D07A887B689A6103E07B881A047B6840
:101214009A6100BF0C37BD465DF8047B704700003F
:1012240080B586B000AF78607B68002B01D10123C4
:1012340067E27B681B6803F00103002B75D0884BC1
:101244009B6803F00C03042B0CD0854B9B6803F0C4
:101254000C03082B12D1824B5B6803F48003B3F5B3
:10126400800F0BD17E4B1B6803F40033002B5BD043
:101274007B685B68002B57D1012342E27B685B6883
:10128400B3F5803F06D1764B1B68754A43F480332F
:1012940013601DE07B685B68B3F5A02F0CD1704B25
:1012A4001B686F4A43F4802313606D4B1B686C4AC0
:1012B40043F4803313600BE0694B1B68684A23F4E2
:1012C40080331360664B1B68654A23F480231360E4
:1012D4007B685B68002B13D0FFF754FC386108E08F
:1012E400FFF750FC02463B69D31A642B01D9032350
:1012F40007E25B4B1B6803F40033002BF0D014E0CF
:10130400FFF740FC386108E0FFF73CFC02463B690C
:10131400D31A642B01D90323F3E1514B1B6803F463
:101324000033002BF0D100E000BF7B681B6803F0A2
:101334000203002B63D04A4B9B6803F00C03002B81
:101344000BD0474B9B6803F00C03082B1CD1444B78
:101354005B6803F48003002B16D1414B1B6803F038
:101364000203002B05D07B68DB68012B01D001232D
:10137400C7E13B4B1B6823F0F8027B681B69DB0069
:10138400374913430B603AE07B68DB68002B20D0BD
:10139400344B01221A60FFF7F5FB386108E0FFF7D0
:1013A400F1FB02463B69D31A022B01D90323A8E1BE
:1013B4002B4B1B6803F00203002BF0D0284B1B6857
:1013C40023F0F8027B681B69DB00254913430B609B
:1013D40015E0244B00221A60FFF7D4FB386108E0C3
:1013E400FFF7D0FB02463B69D31A022B01D9032332
:1013F40087E11B4B1B6803F00203002BF0D17B68D1
:101404001B6803F00803002B36D07B685B69002B54
:1014140016D0154B01221A60FFF7B4FB386108E0BF
:10142400FFF7B0FB02463B69D31A022B01D9032311
:1014340067E10B4B5B6F03F00203002BF0D01BE062
:10144400094B00221A60FFF79DFB38610EE0FFF79D
:1014540099FB02463B69D31A022B07D9032350E1B7
:101464000038024000004742800E4742884B5B6FC1
:1014740003F00203002BEAD17B681B6803F004032A
:10148400002B00F097800023FB75814B1B6C03F04D
:101494008053002B0FD10023BB607D4B1B6C7C4A17
:1014A40043F0805313647A4B1B6C03F08053BB608E
:1014B400BB680123FB75774B1B6803F48073002B17
:1014C40018D1744B1B68734A43F480731360FFF79D
:1014D40059FB386108E0FFF755FB02463B69D31A14
:1014E400022B01D903230CE16A4B1B6803F48073BC
:1014F400002BF0D07B689B68012B06D1644B1B6FDB
:10150400634A43F0010313671CE07B689B68052B67
:101514000CD15F4B1B6F5E4A43F0040313675C4BB3
:101524001B6F5B4A43F0010313670BE0584B1B6FBF
:10153400574A23F001031367554B1B6F544A23F09A
:10154400040313677B689B68002B15D0FFF71AFB15
:1015540038610AE0FFF716FB02463B69D31A41F2F1
:101564008832934201D90323CBE0494B1B6F03F02C
:101574000203002BEED014E0FFF704FB38610AE00D
:10158400FFF700FB02463B69D31A41F288329342CB
:1015940001D90323B5E03E4B1B6F03F00203002B7C
:1015A400EED1FB7D012B05D1394B1B6C384A23F05E
:1015B400805313647B689B69002B00F0A180344B3B
:1015C4009B6803F00C03082B5CD07B689B69022B9F
:1015D40041D1314B00221A60FFF7D4FA386108E098
:1015E400FFF7D0FA02463B69D31A022B01D9032331
:1015F40087E0274B1B6803F00073002BF0D17B6856
:10160400DA697B681B6A1A437B685B6A9B011A432D
:101614007B689B6A5B08013B1B041A437B68DB6A9B
:101624001B061B4913434B601B4B01221A60FFF737
:10163400A9FA386108E0FFF7A5FA02463B69D31A14
:10164400022B01D903235CE0114B1B6803F00073E8
:10165400002BF0D054E0104B00221A60FFF792FAEE
:10166400386108E0FFF78EFA02463B69D31A022B71
:1016740001D9032345E0064B1B6803F00073002BDC
:10168400F0D13DE07B689B69012B07D1012338E051
:101694000038024000700040600047421B4B5B680A
:1016A400FB607B689B69012B28D0FB6803F48002F4
:1016B4007B68DB699A4221D1FB6803F03F027B68B7
:1016C4001B6A9A421AD1FA6847F6C07313407A68C3
:1016D400526A9201934211D1FB6803F440327B6851
:1016E4009B6A5B08013B1B049A4207D1FB6803F029
:1016F40070627B68DB6A1B069A4201D0012300E01A
:10170400002318461837BD4680BD00BF003802408C
:1017140080B584B000AF786039607B68002B01D15C
:101724000123CCE0684B1B6803F007033A689A4234
:101734000CD9654B3A68D2B21A70634B1B6803F03C
:1017440007033A689A4201D00123B8E07B681B681A
:1017540003F00203002B20D07B681B6803F0040312
:10176400002B05D0594B9B68584A43F4E0539360CF
:101774007B681B6803F00803002B05D0534B9B6860
:10178400524A43F460439360504B9B6823F0F00249
:101794007B689B684D4913438B607B681B6803F02F
:1017A4000103002B44D07B685B68012B07D1474BB6
:1017B4001B6803F40033002B19D101237FE07B68FD
:1017C4005B68022B03D07B685B68032B07D13F4B1C
:1017D4001B6803F00073002B09D101236FE03B4B1E
:1017E4001B6803F00203002B01D1012367E0374B90
:1017F4009B6823F003027B685B68344913438B6066
:10180400FFF7C0F9F8600AE0FFF7BCF90246FB688D
:10181400D31A41F28832934201D903234FE02B4B70
:101824009B6803F00C027B685B689B009A42EBD1D7
:10183400254B1B6803F007033A689A420CD2224BEB
:101844003A68D2B21A70204B1B6803F007033A6857
:101854009A4201D0012332E07B681B6803F0040341
:10186400002B08D0194B9B6823F4E0527B68DB689B
:10187400164913438B607B681B6803F00803002B35
:1018840009D0124B9B6823F460427B681B69DB0020
:101894000E4913438B6000F021F802460B4B9B6802
:1018A4001B0903F00F030A49CB5C22FA03F3094A2C
:1018B4001360094B1B681846FFF720F900231846EC
:1018C4001037BD4680BD00BF003C024000380240D6
:1018D400D42C0008080000200C0000202DE9B04F93
:1018E40094B000AF00237B640023FB6400233B64BB
:1018F4000023BB64794B9B6803F00C03082B0DD0C9
:10190400082B00F2E180002B02D0042B03D0DBE093
:10191400734BBB64DBE0734BBB64D8E06F4B5B6819
:1019240003F03F037B646D4B5B6803F48003002B7F
:1019340063D06A4B5B689B090022BB63FA63BB6B91
:10194400C3F308033B6300237B63D7E90C452246BA
:101954002B464FF000004FF00001590141EAD261DB
:10196400500102460B462146511A3961294663EB60
:1019740001037B614FF000024FF00003D7E904AB91
:1019840059468B01514643EA916351468A015146B7
:10199400B2EB0108594663EB01094FF000024FF026
:1019A40000034FEAC90343EA58734FEAC80290465A
:1019B4009946234618EB0303BB602B4649EB03030C
:1019C400FB604FF000024FF00003D7E902452946BF
:1019D4004B02214643EAD15321464A021046194696
:1019E4007B6C0022BB62FA62D7E90A23FEF702FC91
:1019F40002460B461346FB6458E0384B5B689B0970
:101A0400002218461146C0F308033B6200237B62A0
:101A1400D7E9088942464B464FF000004FF00001D9
:101A2400590141EAD261500102460B464146B2EBEC
:101A3400010A494663EB010B4FF000024FF000032B
:101A44004FEA8B1343EA9A634FEA8A12B2EB0A0411
:101A540063EB0B054FF000024FF00003EB0043EA89
:101A64005473E20014461D464346E3183B604B465C
:101A740045EB03037B604FF000024FF00003D7E90E
:101A8400004529468B02214643EA915321468A02A6
:101A9400104619467B6C0022BB61FA61D7E9062324
:101AA400FEF7A8FB02460B461346FB640B4B5B6830
:101AB4001B0C03F0030301335B003B64FA6C3B6CC7
:101AC400B2FBF3F3BB6402E0054BBB6400BFBB6C29
:101AD40018465037BD46BDE8B08F00BF00380240FD
:101AE4000024F40000127A0080B400AF034B1B689A
:101AF4001846BD465DF8047B704700BF080000200F
:101B040080B500AFFFF7F0FF0246054B9B689B0AC8
:101B140003F007030349CB5C22FA03F3184680BDA4
:101B240000380240E42C000880B500AFFFF7DCFF6A
:101B34000246054B9B685B0B03F007030349CB5C30
:101B440022FA03F3184680BD00380240E42C000852
:101B540080B582B000AF78607B68002B01D101238F
:101B64003FE07B6893F83D30DBB2002B06D17B6805
:101B7400002283F83C207868FEF7AAFE7B682422C2
:101B840083F83D207B681B68DA687B681B6822F455
:101B94000052DA60786800F0DFFD7B681B681A6920
:101BA4007B681B6822F490421A617B681B685A693F
:101BB4007B681B6822F02A025A617B681B68DA681A
:101BC4007B681B6842F40052DA607B6800221A6466
:101BD4007B68202283F83D207B68202283F83E2006
:101BE400002318460837BD4680BD80B58AB002AFD1
:101BF400F860B9603B601346FB8000237B61FB689F
:101C040093F83D30DBB2202B7CD1BB68002B02D093
:101C1400FB88002B01D1012375E0FB6893F83C306D
:101C2400012B01D102236EE0FB68012283F83C20E2
:101C3400FB6800221A64FB68212283F83D20FEF72A
:101C4400A1FF7861FB68FA889A84FB68FA88DA84D1
:101C5400FB689B68B3F5805F08D1FB681B69002BA8
:101C640004D10023FB61BB68BB6103E0BB68FB617B
:101C74000023BB61FB68002283F83C202AE03B6818
:101C840000937B6900228021F86800F01FFB034663
:101C9400002B01D0032336E0FB69002B0BD1BB6979
:101CA4001B881A46FB681B68C2F308025A60BB69AA
:101CB4000233BB6107E0FB691A78FB681B685A6052
:101CC400FB690133FB61FB68DB8C9BB2013B9AB27D
:101CD400FB68DA84FB68DB8C9BB2002BCFD13B68BA
:101CE40000937B6900224021F86800F0EFFA034674
:101CF400002B01D0032306E0FB68202283F83D205B
:101D0400002300E0022318462037BD4680BD80B57D
:101D140084B000AFF860B9601346FB80FB6893F8A9
:101D24003E30DBB2202B1DD1BB68002B02D0FB88D8
:101D3400002B01D1012316E0FB6893F83C30012B02
:101D440001D102230FE0FB68012283F83C20FB68E9
:101D540000221A63FB881A46B968F86800F024FB6D
:101D6400034600E0022318461037BD4680BD00003C
:101D740080B5BAB000AF78607B681B681B68C7F891
:101D8400E4307B681B68DB68C7F8E0307B681B685D
:101D94005B69C7F8DC300023C7F8D8300023C7F8E4
:101DA400D430D7F8E43003F00F03C7F8D830D7F8AD
:101DB400D830002B0FD1D7F8E43003F02003002BE8
:101DC40009D0D7F8E03003F02003002B03D0786863
:101DD40000F007FC56E2D7F8D830002B00F0DE8084
:101DE400D7F8DC3003F00103002B06D1D7F8E0303C
:101DF40003F49073002B00F0D180D7F8E43003F0A3
:101E04000103002B0BD0D7F8E03003F48073002BD0
:101E140005D07B681B6C43F001027B681A64D7F819
:101E2400E43003F00403002B0BD0D7F8DC3003F0CC
:101E34000103002B05D07B681B6C43F002027B6816
:101E44001A64D7F8E43003F00203002B0BD0D7F860
:101E5400DC3003F00103002B05D07B681B6C43F0DE
:101E640004027B681A64D7F8E43003F00803002BFB
:101E740011D0D7F8E03003F02003002B05D1D7F8B8
:101E8400DC3003F00103002B05D07B681B6C43F0AE
:101E940008027B681A647B681B6C002B00F0ED81E0
:101EA400D7F8E43003F02003002B08D0D7F8E03053
:101EB40003F02003002B02D0786800F092FB7B68CB
:101EC4001B685B6903F04003402B0CBF0123002314
:101ED400DBB2C7F8D4307B681B6C03F00803002B1B
:101EE40003D1D7F8D430002B4FD0786800F09AFA99
:101EF4007B681B685B6903F04003402B41D17B681E
:101F04001B681433C7F89C30D7F89C3053E8003F63
:101F1400C7F89830D7F8983023F04003C7F8D0308A
:101F24007B681B681433D7F8D020C7F8A820C7F8FB
:101F3400A430D7F8A410D7F8A82041E80023C7F8A4
:101F4400A030D7F8A030002BD9D17B689B6B002B35
:101F540013D07B689B6B7D4A1A657B689B6B184624
:101F6400FEF79DFF0346002B16D07B689B6B1B6D11
:101F74007A68926B104698470EE0786800F090F902
:101F84000AE0786800F08CF906E0786800F088F9D7
:101F94007B6800221A6470E100BF6EE17B681B6BF2
:101FA400012B40F04A81D7F8E43003F01003002BF2
:101FB40000F04381D7F8E03003F01003002B00F069
:101FC4003C810023BB607B681B681B68BB607B682B
:101FD4001B685B68BB60BB687B681B685B6903F05C
:101FE4004003402B40F0B4807B689B6B1B685B68AC
:101FF400A7F8BE30B7F8BE30002B00F040817B68F4
:102004009B8DB7F8BE209A4280F039817B68B7F87F
:10201400BE20DA857B689B6BDB69B3F5807F00F0BB
:1020240088807B681B680C33C7F88830D7F8883001
:1020340053E8003FC7F88430D7F8843023F4807322
:10204400C7F8B8307B681B680C33D7F8B820C7F8DA
:102054009420C7F89030D7F89010D7F8942041E82E
:102064000023C7F88C30D7F88C30002BD9D17B688B
:102074001B6814337B677B6F53E8003F3B673B6F00
:1020840023F00103C7F8B4307B681B681433D7F816
:10209400B420C7F88020FB67F96FD7F8802041E8A7
:1020A4000023BB67BB6F002BE1D17B681B68143333
:1020B4003B663B6E53E8003FFB65FB6D23F040033A
:1020C400C7F8B0307B681B681433D7F8B020FA66C1
:1020D400BB66B96EFA6E41E800237B667B6E002B0B
:1020E400E3D17B68202283F83E207B6800221A63B8
:1020F4007B681B680C33FB64FB6C53E8003FBB64D8
:10210400BB6C23F01003C7F8AC307B681B680C333E
:10211400D7F8AC20BA657B65796DBA6D41E80023C8
:102124003B653B6D002BE3D17B689B6B1846FEF748
:1021340046FE7B689A8D7B68DB8D9BB2D31A9BB27B
:102144001946786800F0B6F899E000BFEF2400085B
:102154007B689A8D7B68DB8D9BB2D31AA7F8CE304F
:102164007B68DB8D9BB2002B00F08B80B7F8CE3000
:10217400002B00F086807B681B680C33BB63BB6B51
:1021840053E8003F7B637B6B23F49073C7F8C8303C
:102194007B681B680C33D7F8C8207A643B64396CBD
:1021A4007A6C41E80023FB63FB6B002BE3D17B6873
:1021B4001B6814337B627B6A53E8003F3B623B6AD3
:1021C40023F00103C7F8C4307B681B681433D7F8C5
:1021D400C4203A63FB62F96A3A6B41E80023BB62AC
:1021E400BB6A002BE3D17B68202283F83E207B6806
:1021F40000221A637B681B680C333B613B6953E81C
:10220400003FFB60FB6823F01003C7F8C0307B6815
:102214001B680C33D7F8C020FA61BB61B969FA694D
:1022240041E800237B617B69002BE3D1B7F8CE3012
:102234001946786800F03EF823E0D7F8E43003F05C
:102244008003002B09D0D7F8E03003F08003002B83
:1022540003D0786800F05DF914E0D7F8E43003F0B7
:102264004003002B0ED0D7F8E03003F04003002BDE
:1022740008D0786800F09DF904E000BF02E000BFD8
:1022840000E000BFE837BD4680BD00BF80B483B026
:1022940000AF786000BF0C37BD465DF8047B704723
:1022A40080B483B000AF786000BF0C37BD465DF8E2
:1022B400047B704780B483B000AF78600B467B80AA
:1022C40000BF0C37BD465DF8047B704780B590B005
:1022D40000AFF860B9603B601346FB7150E0BB6C23
:1022E400B3F1FF3F4CD0BB6C002B07D0FEF74AFC88
:1022F40002463B68D31ABA6C9A4241D2FB681B6807
:102304000C33BB62BB6A53E8003F7B627B6A23F4F5
:10231400D073FB63FB681B680C33FA6B7A633B6313
:10232400396B7A6B41E80023FB62FB6A002BE5D131
:10233400FB681B6814337B617B6953E8003F3B6196
:102344003B6923F00103BB63FB681B681433BA6B5E
:102354003A62FB61F9693A6A41E80023BB61BB69EF
:10236400002BE5D1FB68202283F83D20FB68202266
:1023740083F83E20FB68002283F83C2003230FE00F
:10238400FB681B681A68BB681340BA689A420CBFA2
:1023940001230023DBB21A46FB799A429FD0002323
:1023A40018464037BD4680BD80B485B000AFF860A4
:1023B400B9601346FB80FB68BA689A62FB68FA88C6
:1023C4009A85FB68FA88DA85FB6800221A64FB6840
:1023D400222283F83E20FB68002283F83C20FB681D
:1023E4001B69002B07D0FB681B68DA68FB681B6855
:1023F40042F48072DA60FB681B685A69FB681B68E8
:1024040042F001025A61FB681B68DA68FB681B68CA
:1024140042F02002DA60002318461437BD465DF806
:10242400047B704780B495B000AF78607B681B680C
:102434000C337B637B6B53E8003F3B633B6B23F4C0
:102444009073FB647B681B680C33FA6C3A64FB631F
:10245400F96B3A6C41E80023BB63BB6B002BE5D1FD
:102464007B681B6814333B623B6A53E8003FFB61A3
:10247400FB6923F00103BB647B681B681433BA6CEB
:10248400FA62BB62B96AFA6A41E800237B627B6A3A
:10249400002BE5D17B681B6B012B19D17B681B6872
:1024A4000C33FB60FB6853E8003FBB60BB6823F060
:1024B40010037B647B681B680C337A6CBA617B61A4
:1024C4007969BA6941E800233B613B69002BE5D196
:1024D4007B68202283F83E207B6800221A6300BFB9
:1024E4005437BD465DF8047B704780B584B000AFB7
:1024F40078607B689B6BFB60FB680022DA85FB6875
:102504000022DA84F868FFF7CBFE00BF1037BD461F
:1025140080BD80B485B000AF78607B6893F83D30AF
:10252400DBB2212B3ED17B689B68B3F5805F14D16D
:102534007B681B69002B10D17B681B6AFB60FB68FE
:102544001B881A467B681B68C2F308025A607B68C2
:102554001B6A9A1C7B681A6208E07B681B6A591C18
:102564007A6811621A787B681B685A607B68DB8C16
:102574009BB2013B9BB27A681946D184002B0FD1E0
:102584007B681B68DA687B681B6822F08002DA606B
:102594007B681B68DA687B681B6842F04002DA607B
:1025A400002300E0022318461437BD465DF8047B7F
:1025B400704780B582B000AF78607B681B68DA68CA
:1025C4007B681B6822F04002DA607B68202283F873
:1025D4003D207868FFF75AFE002318460837BD46A9
:1025E40080BD80B58CB000AF78607B6893F83E30D6
:1025F400DBB2222B40F0AB807B689B68B3F5805F35
:1026040017D17B681B69002B13D10023FB627B6805
:102614009B6ABB627B681B685B689BB2C3F308035D
:102624009AB2BB6A1A807B689B6A9A1C7B689A621E
:1026340026E07B689B6AFB620023BB627B689B6825
:10264400B3F5805F07D07B689B68002B0AD17B6859
:102654001B69002B06D17B681B685B68DAB2FB6AD6
:102664001A7008E07B681B685B68DBB203F07F03C9
:10267400DAB2FB6A1A707B689B6A5A1C7B689A629E
:102684007B68DB8D9BB2013B9BB27A681946D1858E
:10269400002B5AD17B681B68DA687B681B6822F0C0
:1026A4002002DA607B681B68DA687B681B6822F4A6
:1026B4008072DA607B681B685A697B681B6822F049
:1026C40001025A617B68202283F83E207B681B6BE1
:1026D400012B35D17B6800221A637B681B680C339D
:1026E4007B617B6953E8003F3B613B6923F0100346
:1026F4007B627B681B680C337A6A3A62FB61F96916
:102704003A6A41E80023BB61BB69002BE5D17B68D1
:102714001B681B6803F01003102B0AD10023FB6015
:102724007B681B681B68FB607B681B685B68FB60DD
:10273400FB687B689B8D19467868FFF7BBFD02E058
:102744007868FDF703FF002302E0002300E0022382
:1027540018463037BD4680BD2DE9B04FC0B000AF3C
:10276400C7F8F400D7F8F4301B681B6923F4405011
:10277400D7F8F430D968D7F8F4301A6840EA01037E
:102784001361D7F8F4309A68D7F8F4301B691A4308
:10279400D7F8F4305B691A43D7F8F430DB69134394
:1027A400C7F8F830D7F8F4301B68DB6823F4164117
:1027B40021F00C01D7F8F4301A68D7F8F8300B433D
:1027C400D360D7F8F4301B685B6923F44070D7F802
:1027D400F4309969D7F8F4301A6840EA0103536178
:1027E400D7F8F4301A688F4B9A4205D0D7F8F430F2
:1027F4001A688D4B9A4204D1FFF796F9C7F8FC008A
:1028040003E0FFF77DF9C7F8FC00D7F8F430DB6983
:10281400B3F5004F40F00C81D7F8FC300022C7F824
:10282400E830C7F8EC20D7E93A4522462B46911800
:10283400B9655B41FB65D7E91623214612EB010814
:10284400294643EB01094FF000024FF000034FEA21
:10285400C90343EA58734FEAC8029046994623468F
:1028640018EB0303C7F8E0302B4649EB0303C7F822
:10287400E430D7F8F4305B680022C7F8D830C7F8E2
:10288400DC20D7E936120B46DB183B65134642EBD6
:1028940003037B65D7E91423D7E93801FDF7AAFCC4
:1028A40002460B46614BA3FB02235B091C01D7F8CC
:1028B400FC300022C7F8D030C7F8D420D7E93489D7
:1028C40042464B469118B9645B41FB64D7E9122335
:1028D400414612EB010A494643EB010B4FF000025B
:1028E4004FF000034FEACB0343EA5A734FEACA029C
:1028F40092469B4643461AEB0303C7F8C8304B463F
:102904004BEB0303C7F8CC30D7F8F4305B680022F4
:10291400C7F8C030C7F8C420D7E930120B46DB181B
:102924003B64134642EB03037B64D7E91023D7E9E6
:102934003201FDF75FFC02460B4611463B4BA3FBFD
:1029440001235B09642202FB03F3CB1ADB0003F1CE
:102954003202364BA3FB02235B095B0003F4F873DA
:102964001C44D7F8FC300022C7F8B830C7F8BC20A4
:10297400D7E92E8942464B469118B9635B41FB6304
:10298400D7E90E2341465118396349464B417B63CD
:102994004FF000024FF00003D7E90CAB5946CB00CF
:1029A400514643EA51735146CA001046194603463C
:1029B40042469B18C7F8B0304B460A4642EB030325
:1029C400C7F8B430D7F8F4305B680022C7F8A830F1
:1029D400C7F8AC20D7E92A120B46DB18BB621346B2
:1029E40042EB0303FB62D7E90A23D7E92C01FDF785
:1029F40001FC02460B460D4BA3FB02135B09642149
:102A040001FB03F3D31ADB003233084AA2FB03238E
:102A14005B0903F00702D7F8F4301B6822449A607C
:102A240005E100BF00100140001401401F85EB5177
:102A3400D7F8FC300022C7F8A030C7F8A420D7E9A3
:102A4400288942464B46911839625B417B62D7E93B
:102A5400082341465418494643EB01054FF0000250
:102A64004FF00003EB0043EA5473E20014461D46A2
:102A74004346E318C7F898304B4645EB0303C7F8C1
:102A84009C30D7F8F4305B680022C7F89030C7F860
:102A940094204FF000024FF00003D7E92445294663
:102AA4008B00214643EA917321468A00D7E9260127
:102AB400FDF7A0FB02460B46604BA3FB02235B0918
:102AC4001C01D7F8FC300022C7F88830C7F88C20E6
:102AD400D7E9228942464B469118B9615B41FB61B3
:102AE400D7E9062341465118396149464B417B6178
:102AF4004FF000024FF00003D7E904AB5946CB0076
:102B0400514643EA51735146CA00104619460346DA
:102B140042469B18C7F880304B460A4642EB0303F3
:102B2400C7F88430D7F8F4305B680022BB67FA67D3
:102B34004FF000024FF00003D7E91E8949468B008D
:102B4400414643EA917341468A00D7E92001FDF7E3
:102B540051FB02460B46394BA3FB02135B0964216C
:102B640001FB03F3D31A1B013233344AA2FB0323C0
:102B74005B0903F0F0031C44D7F8FC3000223B67E8
:102B84007A67D7E91C8942464B469118B9605B4184
:102B9400FB60D7E9022341465118396049464B414D
:102BA4007B604FF000024FF00003D7E900AB5946B9
:102BB400CB00514643EA51735146CA0010461946A8
:102BC400034642469B18BB664B460A4642EB030348
:102BD400FB66D7F8F4305B6800223B667A664FF0F8
:102BE40000024FF00003D7E9188949468B0041469B
:102BF40043EA917341468A00D7E91A01FDF7FAFACC
:102C040002460B460D4BA3FB02135B09642101FB37
:102C140003F3D31A1B013233084AA2FB03235B09D3
:102C240003F00F02D7F8F4301B6822449A6000BF07
:102C340007F58077BD46BDE8B08F00BF1F85EB5117
:102C440070B50D4D0D4C641BA4100026A64209D18D
:102C54000B4D0C4C00F020F8641BA4100026A64277
:102C640005D170BD55F8043B98470136EEE755F899
:102C7400043B98470136F2E7F42C0008F42C0008D2
:102C8400F42C0008F82C000802440346934200D1B7
:102C9400704703F8011BF9E7F8B500BFF8BC08BC9E
:102CA4009E467047F8B500BFF8BC08BC9E46704706
:102CB40048656C6C6F2C20456D6265646465645472
:102CC400686572650D0A00006F6E00006F6666002D
:102CD40000000000000000000102030406070809C8
:082CE4000000000001020304DE
:082CEC003CD5FF7F0100000050
:042CF400B90100081A
:042CF800950100083A
:102CFC00B42C0008D02C00080024F40010000000B4
:042D0C0001000000C2
:0400000508000A697C
:00000001FF
